{
  "contractName": "TextStorage",
  "abi": [
    {
      "inputs": [],
      "stateMutability": "nonpayable",
      "type": "constructor"
    },
    {
      "anonymous": false,
      "inputs": [
        {
          "indexed": true,
          "internalType": "address",
          "name": "user",
          "type": "address"
        },
        {
          "indexed": false,
          "internalType": "string",
          "name": "newText",
          "type": "string"
        }
      ],
      "name": "TextUpdated",
      "type": "event"
    },
    {
      "inputs": [
        {
          "internalType": "string",
          "name": "_text",
          "type": "string"
        }
      ],
      "name": "setText",
      "outputs": [],
      "stateMutability": "nonpayable",
      "type": "function"
    },
    {
      "inputs": [],
      "name": "getText",
      "outputs": [
        {
          "internalType": "string",
          "name": "",
          "type": "string"
        }
      ],
      "stateMutability": "view",
      "type": "function",
      "constant": true
    },
    {
      "inputs": [
        {
          "internalType": "address",
          "name": "_newOwner",
          "type": "address"
        }
      ],
      "name": "setOwner",
      "outputs": [],
      "stateMutability": "nonpayable",
      "type": "function"
    }
  ],
  "bytecode": "0x608060405234801561001057600080fd5b50336000806101000a81548173ffffffffffffffffffffffffffffffffffffffff021916908373ffffffffffffffffffffffffffffffffffffffff1602179055506109ff806100606000396000f3fe608060405234801561001057600080fd5b50600436106100415760003560e01c806313af4035146100465780635d3a1f9d14610062578063e00fe2eb1461007e575b600080fd5b610060600480360381019061005b9190610360565b61009c565b005b61007c600480360381019061007791906104d3565b61016d565b005b61008661025c565b604051610093919061059b565b60405180910390f35b60008054906101000a900473ffffffffffffffffffffffffffffffffffffffff1673ffffffffffffffffffffffffffffffffffffffff163373ffffffffffffffffffffffffffffffffffffffff161461012a576040517f08c379a00000000000000000000000000000000000000000000000000000000081526004016101219061062f565b60405180910390fd5b806000806101000a81548173ffffffffffffffffffffffffffffffffffffffff021916908373ffffffffffffffffffffffffffffffffffffffff16021790555050565b60008054906101000a900473ffffffffffffffffffffffffffffffffffffffff1673ffffffffffffffffffffffffffffffffffffffff163373ffffffffffffffffffffffffffffffffffffffff16146101fb576040517f08c379a00000000000000000000000000000000000000000000000000000000081526004016101f2906106c1565b60405180910390fd5b806001908161020a91906108f7565b503373ffffffffffffffffffffffffffffffffffffffff167f645925da5645c93941b6750ce421639ea77c4e360dd016d61eb3dbee351a757182604051610251919061059b565b60405180910390a250565b60606001805461026b90610710565b80601f016020809104026020016040519081016040528092919081815260200182805461029790610710565b80156102e45780601f106102b9576101008083540402835291602001916102e4565b820191906000526020600020905b8154815290600101906020018083116102c757829003601f168201915b5050505050905090565b6000604051905090565b600080fd5b600080fd5b600073ffffffffffffffffffffffffffffffffffffffff82169050919050565b600061032d82610302565b9050919050565b61033d81610322565b811461034857600080fd5b50565b60008135905061035a81610334565b92915050565b600060208284031215610376576103756102f8565b5b60006103848482850161034b565b91505092915050565b600080fd5b600080fd5b6000601f19601f8301169050919050565b7f4e487b7100000000000000000000000000000000000000000000000000000000600052604160045260246000fd5b6103e082610397565b810181811067ffffffffffffffff821117156103ff576103fe6103a8565b5b80604052505050565b60006104126102ee565b905061041e82826103d7565b919050565b600067ffffffffffffffff82111561043e5761043d6103a8565b5b61044782610397565b9050602081019050919050565b82818337600083830152505050565b600061047661047184610423565b610408565b90508281526020810184848401111561049257610491610392565b5b61049d848285610454565b509392505050565b600082601f8301126104ba576104b961038d565b5b81356104ca848260208601610463565b91505092915050565b6000602082840312156104e9576104e86102f8565b5b600082013567ffffffffffffffff811115610507576105066102fd565b5b610513848285016104a5565b91505092915050565b600081519050919050565b600082825260208201905092915050565b60005b8381101561055657808201518184015260208101905061053b565b60008484015250505050565b600061056d8261051c565b6105778185610527565b9350610587818560208601610538565b61059081610397565b840191505092915050565b600060208201905081810360008301526105b58184610562565b905092915050565b7f4f6e6c7920636f6e7472616374206f776e65722063616e2063616c6c2074686960008201527f732066756e6374696f6e00000000000000000000000000000000000000000000602082015250565b6000610619602a83610527565b9150610624826105bd565b604082019050919050565b600060208201905081810360008301526106488161060c565b9050919050565b7f4f6e6c792073706563696669656420757365722063616e2063616c6c2074686960008201527f732066756e6374696f6e00000000000000000000000000000000000000000000602082015250565b60006106ab602a83610527565b91506106b68261064f565b604082019050919050565b600060208201905081810360008301526106da8161069e565b9050919050565b7f4e487b7100000000000000000000000000000000000000000000000000000000600052602260045260246000fd5b6000600282049050600182168061072857607f821691505b60208210810361073b5761073a6106e1565b5b50919050565b60008190508160005260206000209050919050565b60006020601f8301049050919050565b600082821b905092915050565b6000600883026107a37fffffffffffffffffffffffffffffffffffffffffffffffffffffffffffffffff82610766565b6107ad8683610766565b95508019841693508086168417925050509392505050565b6000819050919050565b6000819050919050565b60006107f46107ef6107ea846107c5565b6107cf565b6107c5565b9050919050565b6000819050919050565b61080e836107d9565b61082261081a826107fb565b848454610773565b825550505050565b600090565b61083761082a565b610842818484610805565b505050565b5b818110156108665761085b60008261082f565b600181019050610848565b5050565b601f8211156108ab5761087c81610741565b61088584610756565b81016020851015610894578190505b6108a86108a085610756565b830182610847565b50505b505050565b600082821c905092915050565b60006108ce600019846008026108b0565b1980831691505092915050565b60006108e783836108bd565b9150826002028217905092915050565b6109008261051c565b67ffffffffffffffff811115610919576109186103a8565b5b6109238254610710565b61092e82828561086a565b600060209050601f831160018114610961576000841561094f578287015190505b61095985826108db565b8655506109c1565b601f19841661096f86610741565b60005b8281101561099757848901518255600182019150602085019450602081019050610972565b868310156109b457848901516109b0601f8916826108bd565b8355505b6001600288020188555050505b50505050505056fea2646970667358221220acd5f03b18412741f21ac1a7eb2f6f0b15baf8266bc1a24755802484def52b7c64736f6c63430008130033",
  "immutableReferences": {},
  "source": "pragma solidity ^0.8.0;\r\n\r\ncontract TextStorage {\r\n    address private owner;  // \r\n    string private storedText;  // \r\n    \r\n    // \r\n    event TextUpdated(address indexed user, string newText);\r\n\r\n    // \r\n    constructor() {\r\n        owner = msg.sender;\r\n    }\r\n\r\n    // \r\n    modifier onlyOwner() {\r\n        require(msg.sender == owner, \"Only contract owner can call this function\");\r\n        _;\r\n    }\r\n\r\n    // \r\n    function setText(string memory _text) public {\r\n        require(msg.sender == owner, \"Only specified user can call this function\");\r\n        storedText = _text;\r\n        emit TextUpdated(msg.sender, _text);\r\n    }\r\n\r\n    // \r\n    function getText() public view returns (string memory) {\r\n        return storedText;\r\n    }\r\n\r\n    // \r\n    function setOwner(address _newOwner) public onlyOwner {\r\n        owner = _newOwner;\r\n    }\r\n}\r\n",
  "sourcePath": "W:\\ETHBeijing\\contracts\\TextStorage.sol",
  "compiler": {
    "name": "solc",
    "version": "0.8.19+commit.7dd6d404.Emscripten.clang"
  },
  "schemaVersion": "3.4.13",
  "updatedAt": "2023-04-07T14:49:46.329Z",
  "networkType": "ethereum",
  "devdoc": {
    "kind": "dev",
    "methods": {},
    "version": 1
  },
  "userdoc": {
    "kind": "user",
    "methods": {},
    "version": 1
  }
}